:020000040800F2
:100000000050002089270008492500084F250008D6
:10001000552500085B250008612500080000000048
:10002000000000000000000000000000672500083C
:1000300073250008000000007F2500088B250008BC
:10004000D1270008D1270008D1270008D1270008B0
:10005000D1270008D1270008D1270008D1270008A0
:10006000D1270008D1270008D1270008D127000890
:10007000D1270008D1270008D1270008D127000880
:1000800099250008D1270008D1270008D1270008AA
:10009000D1270008D1270008D1270008D127000860
:1000A000D1270008D1270008D1270008D127000850
:1000B000AD250008D1270008D1270008C125000878
:1000C000D5250008D1270008D1270008D12700082E
:1000D000D1270008D1270008E9250008D12700080A
:1000E000D1270008D1270008D12700080000000010
:1000F0000000000000000000000000000000000000
:0C01000000000000000000005FF808F1A3
:1001100010B5054C237833B9044B13B10448AFF341
:1001200000800123237010BDE001002000000000CA
:10013000A4B4000808B5034B1BB103490348AFF34F
:10014000008008BD00000000E4010020A4B4000805
:10015000034613F8012B002AFBD1181A0138704707
:1001600081F0004102E000BF83F0004330B54FEA68
:1001700041044FEA430594EA050F08BF90EA020FD5
:100180001FBF54EA000C55EA020C7FEA645C7FEA68
:10019000655C00F0E2804FEA5454D4EB5555B8BF8B
:1001A0006D420CDD2C4480EA020281EA030382EAFC
:1001B000000083EA010180EA020281EA0303362D8E
:1001C00088BF30BD11F0004F4FEA01314FF4801C61
:1001D0004CEA113102D0404261EB410113F0004F73
:1001E0004FEA03334CEA133302D0524263EB43032A
:1001F00094EA050F00F0A780A4F10104D5F1200EC8
:100200000DDB02FA0EFC22FA05F2801841F1000122
:1002100003FA0EF2801843FA05F359410EE0A5F1F6
:1002200020050EF1200E012A03FA0EFC28BF4CF027
:10023000020C43FA05F3C01851EBE37101F00045DD
:1002400007D54FF0000EDCF1000C7EEB00006EEBEA
:100250000101B1F5801F1BD3B1F5001F0CD3490874
:100260005FEA30004FEA3C0C04F101044FEA4452CB
:1002700012F5800F80F09A80BCF1004F08BF5FEA52
:10028000500C50F1000041EB045141EA050130BD32
:100290005FEA4C0C404141EB0101013C28BFB1F544
:1002A000801FE9D291F0000F04BF01460020B1FA8F
:1002B00081F308BF2033A3F10B03B3F120020CDA62
:1002C0000C3208DD02F1140CC2F10C0201FA0CF040
:1002D00021FA02F10CE002F11402D8BFC2F1200CA5
:1002E00001FA02F120FA0CFCDCBF41EA0C0190405B
:1002F000E41AA2BF01EB0451294330BD6FEA0404A4
:100300001F3C1CDA0C340EDC04F11404C4F120028E
:1003100020FA04F001FA02F340EA030021FA04F3A0
:1003200045EA030130BDC4F10C04C4F1200220FAF7
:1003300002F001FA04F340EA0300294630BD21FA35
:1003400004F0294630BD94F0000F83F4801306BFFB
:1003500081F480110134013D4EE77FEA645C18BFEF
:100360007FEA655C29D094EA050F08BF90EA020F86
:1003700005D054EA000C04BF1946104630BD91EA7E
:10038000030F1EBF0021002030BD5FEA545C05D181
:100390004000494128BF41F0004130BD14F58004C0
:1003A0003CBF01F5801130BD01F0004545F0FE4134
:1003B00041F470014FF0000030BD7FEA645C1ABF69
:1003C000194610467FEA655C1CBF0B46024650EAA0
:1003D000013406BF52EA033591EA030F41F40021CC
:1003E00030BD00BF90F0000F04BF0021704730B552
:1003F0004FF4806404F132044FF000054FF0000127
:1004000050E700BF90F0000F04BF0021704730B5E7
:100410004FF4806404F1320410F0004548BF4042BC
:100420004FF000013EE700BF42004FEAE2014FEA11
:1004300031014FEA02701FBF12F07F4393F07F4FEC
:1004400081F06051704732F07F4208BF704793F0EF
:100450007F4F04BF41F40021704730B54FF4607402
:1004600001F0004521F000411CE700BF50EA010205
:1004700008BF704730B54FF000050AE050EA0102AE
:1004800008BF704730B511F0004502D5404261EB1E
:1004900041014FF4806404F132045FEA915C3FF45F
:1004A000D8AE4FF003025FEADC0C18BF03325FEAFC
:1004B000DC0C18BF033202EBDC02C2F1200300FAAD
:1004C00003FC20FA02F001FA03FE40EA0E0021FAD2
:1004D00002F11444BDE600BF70B54FF0FF0C4CF4C0
:1004E000E06C1CEA11541DBF1CEA135594EA0C0F72
:1004F00095EA0C0F00F0DEF82C4481EA030621EAAD
:100500004C5123EA4C5350EA013518BF52EA0335E7
:1005100041F4801143F4801338D0A0FB02CE4FF099
:100520000005E1FB02E506F00042E0FB03E54FF0C9
:100530000006E1FB03569CF0000F18BF4EF0010EC1
:10054000A4F1FF04B6F5007F64F5407404D25FEABD
:100550004E0E6D4146EB060642EAC62141EA555170
:100560004FEAC52040EA5E504FEACE2EB4F1FD0CB2
:1005700088BFBCF5E06F1ED8BEF1004F08BF5FEA30
:10058000500E50F1000041EB045170BD06F00046E2
:1005900046EA010140EA020081EA0301B4EB5C048F
:1005A000C2BFD4EB0C0541EA045170BD41F4801187
:1005B0004FF0000E013C00F3AB8014F1360FDEBFAC
:1005C000002001F0004170BDC4F10004203C35DA88
:1005D0000C341BDC04F11404C4F1200500FA05F30B
:1005E00020FA04F001FA05F240EA020001F00042AC
:1005F00021F0004110EBD37021FA04F642EB060122
:100600005EEA430E08BF20EAD37070BDC4F10C044B
:10061000C4F1200500FA04F320FA05F001FA04F20F
:1006200040EA020001F0004110EBD37041F10001FB
:100630005EEA430E08BF20EAD37070BDC4F1200506
:1006400000FA05F24EEA020E20FA04F301FA05F26E
:1006500043EA020321FA04F001F0004121FA04F216
:1006600020EA020000EBD3705EEA430E08BF20EAE6
:10067000D37070BD94F0000F0FD101F00046400020
:1006800041EB010111F4801F08BF013CF7D041EAA2
:10069000060195F0000F18BF704703F000465200A6
:1006A00043EB030313F4801F08BF013DF7D043EA77
:1006B0000603704794EA0C0F0CEA135518BF95EA2D
:1006C0000C0F0CD050EA410618BF52EA4306D1D1B4
:1006D00081EA030101F000414FF0000070BD50EAD3
:1006E000410606BF1046194652EA430619D094EA5D
:1006F0000C0F02D150EA013613D195EA0C0F05D147
:1007000052EA03361CBF104619460AD181EA03019A
:1007100001F0004141F0FE4141F470014FF0000052
:1007200070BD41F0FE4141F4780170BD70B54FF0ED
:10073000FF0C4CF4E06C1CEA11541DBF1CEA13556D
:1007400094EA0C0F95EA0C0F00F0A7F8A4EB05044F
:1007500081EA030E52EA03354FEA013100F0888046
:100760004FEA03334FF0805545EA131343EA12630F
:100770004FEA022245EA111545EA10654FEA0026C4
:100780000EF000419D4208BF964244F1FD0404F57D
:10079000407402D25B084FEA3202B61A65EB0305D9
:1007A0005B084FEA32024FF480104FF4002CB6EB96
:1007B000020E75EB030E22BFB61A754640EA0C0016
:1007C0005B084FEA3202B6EB020E75EB030E22BF56
:1007D000B61A754640EA5C005B084FEA3202B6EB97
:1007E000020E75EB030E22BFB61A754640EA9C0056
:1007F0005B084FEA3202B6EB020E75EB030E22BF26
:10080000B61A754640EADC0055EA060E18D04FEAE3
:10081000051545EA16754FEA06164FEAC30343EA83
:1008200052734FEAC2025FEA1C1CC0D111F4801F50
:100830000BD141EA00014FF000004FF0004CB6E749
:1008400011F4801F04BF01430020B4F1FD0C88BFE8
:10085000BCF5E06F3FF6AFAEB5EB030C04BFB6EBF3
:10086000020C5FEA500C50F1000041EB045170BDE6
:100870000EF0004E4EEA113114EB5C04C2BFD4EB13
:100880000C0541EA045170BD41F480114FF0000E97
:10089000013C90E645EA060E8DE60CEA135594EA13
:1008A0000C0F08BF95EA0C0F3FF43BAF94EA0C0F16
:1008B0000AD150EA01347FF434AF95EA0C0F7FF48B
:1008C00025AF104619462CE795EA0C0F06D152EADF
:1008D00003353FF4FDAE1046194622E750EA4106C3
:1008E00018BF52EA43067FF4C5AE50EA41047FF4D4
:1008F0000DAF52EA43057FF4EBAE12E74FF0FF3C39
:1009000006E000BF4FF0010C02E000BF4FF0010C09
:100910004DF804CD4FEA410C7FEA6C5C4FEA430C82
:1009200018BF7FEA6C5C1BD001B050EA410C0CBFD1
:1009300052EA430C91EA030F02BF90EA020F002033
:10094000704710F1000F91EA030F58BF994208BF9A
:1009500090422CBFD8176FEAE37040F00100704757
:100960004FEA410C7FEA6C5C02D150EA013C07D1AE
:100970004FEA430C7FEA6C5CD6D152EA033CD3D0F9
:100980005DF8040B704700BF8446104662468C46F3
:100990001946634600E000BF01B5FFF7B7FF002826
:1009A00048BF10F1000F01BD4DF808EDFFF7F4FF4F
:1009B0000CBF012000205DF808FB00BF4DF808EDDA
:1009C000FFF7EAFF34BF012000205DF808FB00BFFD
:1009D0004DF808EDFFF7E0FF94BF012000205DF81F
:1009E00008FB00BF4DF808EDFFF7CEFF94BF0120D4
:1009F00000205DF808FB00BF4DF808EDFFF7C4FFCD
:100A000034BF012000205DF808FB00BF4FEA410C15
:100A10007FEA6C5C02D150EA013C0AD14FEA430CF8
:100A20007FEA6C5C02D152EA033C02D14FF0000035
:100A300070474FF0010070474FEA410212F5001273
:100A400015D211D56FF47873B3EB625212D94FEA15
:100A5000C12343F0004343EA505311F0004F23FAFF
:100A600002F018BF404270474FF00000704750EA54
:100A7000013005D111F0004008BF6FF00040704711
:100A80004FF00000704700BF4FEA4102B2F1E0436F
:100A900024BFB3F5001CDCF1FE5C0DD901F0004C65
:100AA0004FEAC0024CEA5070B2F1004F40EB8300B5
:100AB00008BF20F00100704711F0804F21D113F1E1
:100AC0003872BCBF01F00040704741F480114FEA1A
:100AD0005252C2F11802C2F1200C10FA0CF320FAA3
:100AE00002F018BF40F001004FEAC1234FEAD323C0
:100AF00003FA0CFC40EA0C0023FA02F34FEA43032A
:100B0000CCE77FEA625307D150EA01331EBF4FF0B2
:100B1000FE4040F44000704701F0004040F0FE40CD
:100B200040F40000704700BF80F0004002E000BFCA
:100B300081F0004142001FBF5FEA410392EA030FC8
:100B40007FEA226C7FEA236C6AD04FEA1262D2EB12
:100B50001363C1BFD218414048404140B8BF5B4217
:100B6000192B88BF704710F0004F40F4000020F0B0
:100B70007F4018BF404211F0004F41F4000121F0C6
:100B80007F4118BF494292EA030F3FD0A2F1010210
:100B900041FA03FC10EB0C00C3F1200301FA03F14E
:100BA00000F0004302D5494260EB4000B0F5000F71
:100BB00013D3B0F1807F06D340084FEA310102F130
:100BC0000102FE2A51D2B1F1004F40EBC25008BFE2
:100BD00020F0010040EA03007047490040EB0000AC
:100BE000013A28BFB0F5000FEDD2B0FA80FCACF1AD
:100BF000080CB2EB0C0200FA0CF0AABF00EBC250DA
:100C000052421843BCBFD0401843704792F0000FC7
:100C100081F4000106BF80F400000132013BB5E71A
:100C20004FEA41037FEA226C18BF7FEA236C21D090
:100C300092EA030F04D092F0000F08BF08467047F5
:100C400090EA010F1CBF0020704712F07F4F04D1C3
:100C5000400028BF40F00040704712F100723CBFD6
:100C600000F50000704700F0004343F0FE4040F400
:100C7000000070477FEA226216BF08467FEA2363BE
:100C80000146420206BF5FEA412390EA010F40F4A9
:100C9000800070474FF0000304E000BF10F00043F5
:100CA00048BF40425FEA000C08BF704743F09643DC
:100CB00001464FF000001CE050EA010208BF7047F7
:100CC0004FF000030AE000BF50EA010208BF70477E
:100CD00011F0004302D5404261EB41015FEA010C93
:100CE00002BF84460146002043F0B64308BFA3F18B
:100CF0008053A3F50003BCFA8CF2083AA3EBC2536D
:100D000010DB01FA02FC634400FA02FCC2F120028B
:100D1000BCF1004F20FA02F243EB020008BF20F0C2
:100D20000100704702F1200201FA02FCC2F1200228
:100D300050EA4C0021FA02F243EB020008BF20EA1D
:100D4000DC7070474FF0FF0C1CEAD0521EBF1CEA4B
:100D5000D15392EA0C0F93EA0C0F6FD01A4480EA39
:100D6000010C400218BF5FEA41211ED04FF0006322
:100D700043EA501043EA5111A0FB01310CF000404E
:100D8000B1F5000F3EBF490041EAD3715B0040EA74
:100D9000010062F17F02FD2A1DD8B3F1004F40EB44
:100DA000C25008BF20F00100704790F0000F0CF017
:100DB000004C08BF49024CEA502040EA51207F3ADB
:100DC000C2BFD2F1FF0340EAC250704740F40000B6
:100DD0004FF00003013A5DDC12F1190FDCBF00F0A7
:100DE00000407047C2F10002410021FA02F1C2F155
:100DF000200200FA02FC5FEA310040F1000053EAF1
:100E00004C0308BF20EADC70704792F0000F00F03E
:100E1000004C02BF400010F4000F013AF9D040EA44
:100E20000C0093F0000F01F0004C02BF490011F4D8
:100E3000000F013BF9D041EA0C018FE70CEAD153D6
:100E400092EA0C0F18BF93EA0C0F0AD030F0004C56
:100E500018BF31F0004CD8D180EA010000F000400A
:100E6000704790F0000F17BF90F0004F084691F0C8
:100E7000000F91F0004F14D092EA0C0F01D1420202
:100E80000FD193EA0C0F03D14B0218BF084608D1CB
:100E900080EA010000F0004040F0FE4040F4000015
:100EA000704740F0FE4040F4400070474FF0FF0CA8
:100EB0001CEAD0521EBF1CEAD15392EA0C0F93EAEF
:100EC0000C0F69D0A2EB030280EA010C49024FEA41
:100ED000402037D04FF0805343EA111143EA1013FA
:100EE0000CF000408B4238BF5B0042F17D024FF4B2
:100EF000000C8B4224BF5B1A40EA0C00B3EB510F8D
:100F000024BFA3EB510340EA5C00B3EB910F24BF75
:100F1000A3EB910340EA9C00B3EBD10F24BFA3EBFA
:100F2000D10340EADC001B0118BF5FEA1C1CE0D1C2
:100F3000FD2A3FF650AF8B4240EBC25008BF20F075
:100F4000010070470CF0004C4CEA50207F32C2BFC9
:100F5000D2F1FF0340EAC250704740F400004FF066
:100F60000003013A37E792F0000F00F0004C02BF97
:100F7000400010F4000F013AF9D040EA0C0093F061
:100F8000000F01F0004C02BF490011F4000F013BBB
:100F9000F9D041EA0C0195E70CEAD15392EA0C0F23
:100FA00008D142027FF47DAF93EA0C0F7FF470AF5B
:100FB000084676E793EA0C0F04D14B023FF44CAF9E
:100FC00008466EE730F0004C18BF31F0004CCAD133
:100FD00030F000427FF45CAF31F000437FF43CAF6F
:100FE0005FE700BF4FEA4002B2F1FE4F0FD34FF070
:100FF0009E03B3EB12620DD94FEA002343F0004386
:1010000010F0004F23FA02F018BF404270474FF033
:101010000000704712F1610F01D1420205D110F0BA
:10102000004008BF6FF0004070474FF0000070476D
:1010300042000ED2B2F1FE4F0BD34FF09E03B3EB42
:10104000126209D44FEA002343F0004323FA02F06E
:1010500070474FF00000704712F1610F01D142025A
:1010600002D14FF0FF3070474FF00000704700BFD3
:1010700080B483B000AF786039607B683A681A60EA
:101080007B684FF000025A607B684FF000029A6064
:101090007B684FF00002DA607B684FF000021A6153
:1010A0007B6800221A757B6800229A617B680022A7
:1010B000DA6100BF0C37BD4680BC704780B586B092
:1010C00002AF78600023FB737B68186807F10F029A
:1010D0004FF0FF3300930123702102F0B1FA034671
:1010E000002B01D1012300E0002318461037BD4634
:1010F00080BD000080B586B002AF7860114A07F16C
:101100000C031268114619800233120C1A707B68A6
:10111000186807F10C024FF0FF330093032370218E
:1011200002F08EFA0346002B01D0022305E001F005
:10113000A9FB02467B689A61002318461037BD461A
:1011400080BD00BFC0B4000880B588B002AF786031
:101150000723FB737B6818687B6803F12002FB7B25
:101160009BB24FF0FF310091702102F067FB034604
:10117000002B01D0022320E00123FB7500233B61FB
:101180000CE07A683B69134420331B78002B02D0B3
:101190000023FB7506E03B6901333B61FB7B3A6949
:1011A0009A42EEDBFB7D002B01D0032305E001F02A
:1011B00069FB02467B68DA61002318461837BD4692
:1011C00080BD000080B586B000AF78607B6893F882
:1011D00020207B681A757B6893F821301A037B689E
:1011E00093F822301B0113437A6892F823201209E6
:1011F000D2B213437B617869FFF7F4F84FF0000235
:10120000254BFFF769F902460B4610461946FFF7D2
:101210003BFC02467B685A607B6893F823301B04D2
:1012200003F470227B6893F824301B0213437A681E
:1012300092F8252013433B613869FFF7D3F84FF04C
:101240000002164BFFF748F902460B4610461946B6
:101250004FF00002124BFEF787FF02460B46104686
:101260001946FFF711FC02467B689A607B682033C1
:101270000621184600F042F80346FB737B6893F89A
:101280002630FA7B9A4201D0012300E00023184661
:101290001837BD4680BD00BF0000193F0000293F40
:1012A0000000494080B586B002AF78600023FB7330
:1012B0007B68186807F10F024FF0FF33009301239A
:1012C000702102F0BBFA012001F0E6FAFB7B184620
:1012D0001037BD4680BD80B582B000AF78607868B9
:1012E000FFF7E0FF034603F08003802B0CBF0123D0
:1012F0000023DBB218460837BD4680BD80B485B0F8
:1013000000AF78600B46FB70FF23FB731EE07B6829
:101310005A1C7A601A78FB7B5340FB730023BB7323
:1013200011E097F90F30002B07DAFB7B5B005BB213
:1013300083F031035BB2FB7302E0FB7B5B00FB736A
:10134000BB7B0133BB73BB7B072BEAD9FB785A1EEF
:10135000FA70002BDBD1FB7B18461437BD4680BCEE
:101360007047000080B500AF0021012000F085FA31
:10137000054800F06DFA0021022000F07EFA0348D3
:1013800000F066FA00BF80BD880300208C020020B8
:1013900080B500AF00F02EFA0A490B48FFF768FE4F
:1013A0000A4B00221A704FF47A71002000F0ECFE14
:1013B000074B00221A704FF47A71032000F0E4FE0C
:1013C00000BF80BD38020020A00200209D02002046
:1013D0009903002080B500AF032000F0C5FE03464E
:1013E000002B2DD0174B1B78022B17D1164B072241
:1013F0001A7042F21071002000F0C6FE114B1B78EB
:10140000022B0BD1114A1121114807F0FDFD114AA1
:101410001121114807F0F8FDFFF7A4FF4FF0FF334B
:10142000012242210D4802F075FC0346002B02D038
:101430000B4B01221A704FF47A71032000F0A4FEC6
:1014400000BF80BD9D02002099030020C4B40008A5
:1014500088030020D4B400088C0200203802002049
:10146000FC01002090B585B004AF9F4B1B78082B82
:1014700000F2298101A252F823F000BFA114000854
:10148000C9140008F91400081715000867150008AA
:10149000AD150008CD150008791600085116000892
:1014A000002000F061FE0346002B00F00E814FF497
:1014B0007A71012000F068FE6421002000F064FED3
:1014C000894B01221A7000E1002000F04DFE034616
:1014D000002B00F0FC808548FFF7F0FD0346002B51
:1014E00006D0834B00221A707F4B02221A70EEE066
:1014F0007F4B02221A70EAE07C48FFF7ECFE0346BD
:10150000002B40F0E6801421002000F03DFE764BD9
:1015100003221A70DDE0002000F026FE0346002BB7
:1015200000F0D98001F0AEF90246704BDB69D31AA6
:10153000B3F57A7F13D36D48FFF7DCFD03461A46F7
:101540006B4B1A706A4B1B78002B40F0C480502103
:10155000002000F019FE644B04221A70BBE0644BBB
:1015600005221A70B7E001F08DF902465F4B9B69C6
:10157000D31AB3F57A7F12D25C48FFF7E5FD034634
:101580001A465B4B1A705A4B1B78002B03D1564BF3
:1015900005221A70A4E0544B01221A70A0E0544BAB
:1015A00004221A70504B03221A7099E04F48FFF73B
:1015B00009FE03461A464E4B1A704D4B1B78002B02
:1015C00040F08B80484B06221A7086E0494B1B780E
:1015D000012B0ED14FF0FF3301224221464802F089
:1015E00099FB0346002B04D100F004F9414B002283
:1015F0001A70012000F0B8FD0346002B6FD04FF4A5
:101600007A71012000F0C0FD384B9B681846FEF748
:101610000BFF02460B46DF210291CDE90023374A3A
:101620001121374807F0F0FC304B5B681846FEF795
:10163000FBFE02460B46CDE90023324A1121324817
:1016400007F0E2FCFFF78EFE274B08221A7046E0F7
:10165000264B9B681846FFF7C5FC0446234B5B6886
:101660001846FFF7BFFC03461946204600F048FB2A
:101670001D4B02221A7033E01D4B1B78022B22D126
:1016800015E0002000F070FD0346002B0FD01F4A2C
:1016900011211B4807F0B8FC1D4A11211A4807F018
:1016A000B3FCFFF75FFE6421002000F06DFD0F48E2
:1016B000FFF704FD0346002BE3D00B4B02221A7008
:1016C0000B4B00221A7000BF0AE000BF08E000BF09
:1016D00006E000BF04E000BF02E000BF00E000BF82
:1016E00000BF0437BD4690BD99030020A002002032
:1016F0009D020020FC01002038020020E4B4000814
:1017000088030020F8B400088C0200200CB5000803
:101710001CB5000880B586B002AF0346FB7197F98F
:10172000073023F00F035BB243F00C035BB2DBB274
:101730003B7397F9073023F00F035BB243F00803C4
:101740005BB2DBB27B73FB791B015BB243F00C0332
:101750005BB2DBB2BB73FB791B015BB243F00803E6
:101760005BB2DBB2FB7307F10C026423009304232A
:101770004221034801F064FF00BF1037BD4680BD21
:101780003802002080B586B002AF0346FB7197F99E
:10179000073023F00F035BB243F00D035BB2DBB203
:1017A0003B7397F9073023F00F035BB243F0090353
:1017B0005BB2DBB27B73FB791B015BB243F00D03C1
:1017C0005BB2DBB2BB73FB791B015BB243F0090375
:1017D0005BB2DBB2FB7307F10C02642300930423BA
:1017E0004221034801F02CFF00BF1037BD4680BDE9
:1017F0003802002080B500AF3320FFF78BFF322086
:10180000FFF788FF322001F047F82820FFF782FF1A
:10181000322001F041F80120FFF77CFF322001F077
:101820003BF80620FFF776FF322001F035F80C2058
:10183000FFF770FF322001F02FF80220FFF76AFF58
:10184000322001F029F88020FFF764FF00BF80BD3F
:1018500080B582B000AF786006E07B685A1C7A6081
:101860001B781846FFF78EFF7B681B78002BF4D19E
:1018700000BF00BF0837BD4680BD80B584B000AF53
:1018800003460A46FB711346BB71FB79012B03D15A
:10189000BB79803BFB7302E0BB79403BFB73FB7B76
:1018A0001846FFF737FF00BF1037BD4680BD000068
:1018B00080B483B000AF00237B6007E0084A7B68F8
:1018C000012122F813107B6801337B607B685F2B5A
:1018D000F4DD00BF00BF0C37BD4680BC704700BFC1
:1018E000C802002080B489B000AFF860B9607A60A7
:1018F0003B600723FB6117E07A68FB6942FA03F358
:101900009BB203F0010399B2FA6813465B001344DB
:10191000DB00DA1DFB69D31A4A1C91B2264A22F871
:101920001310FB69013BFB61FB69002BE4DA072321
:10193000BB6118E0BA68BB6942FA03F39BB203F0DB
:10194000010399B2FA6813465B001344DB0003F10C
:101950000F02BB69D31A4A1C91B2174A22F813101E
:10196000BB69013BBB61BB69002BE3DA07237B61E9
:1019700018E03A687B6942FA03F39BB203F0010373
:1019800099B2FA6813465B001344DB0003F11702B7
:101990007B69D31A4A1C91B2074A22F813107B695B
:1019A000013B7B617B69002BE3DA00BF00BF24377A
:1019B000BD4680BC704700BFC802002080B500AFA4
:1019C000074B5B6A184601F00DFB0346012B05D15E
:1019D0006023044A0021024805F052F800BF80BD90
:1019E0009C030020C802002090B587B000AFF860CB
:1019F000B9607A60FB707A68FB68D31A1846FFF703
:101A00004DF90446BA68FB68D31A1846FFF746F941
:101A1000034619462046FFF749FA03467B61FB78E7
:101A20001846FFF73BF9044697F83020FB78D31AA5
:101A30001846FFF733F9034679691846FFF782F92C
:101A4000034619462046FFF775F803461846FFF788
:101A5000EFFA0346DAB2FB6B1A7097F82830184693
:101A6000FFF71CF9044697F8342097F82830D31A6A
:101A70001846FFF713F9034679691846FFF762F92C
:101A8000034619462046FFF755F803461846FFF768
:101A9000CFFA0346DAB23B6C1A7097F82C3018462E
:101AA000FFF7FCF8044697F8382097F82C30D31A43
:101AB0001846FFF7F3F8034679691846FFF742F92D
:101AC000034619462046FFF735F803461846FFF748
:101AD000AFFA0346DAB27B6C1A7000BF1C37BD4602
:101AE00090BD80B58CB008AFF860B9607A603B609B
:101AF000FB681D2B19DCFB68142B16DD3B68079374
:101B00007B680693BB6805938023049300230393AB
:101B100000230293FF230193002300930023FA681C
:101B20001E211420FFF760FF50E0FB681D2B19DD1C
:101B3000FB68222B16DC3B6807937B680693BB6827
:101B400005930023049380230393FF230293002330
:101B50000193FF230093FF23FA6823211E20FFF740
:101B600043FF33E0FB68222B19DDFB68282B16DCD2
:101B70003B6807937B680693BB6805930023049337
:101B800000230393FF2302930023019380230093F8
:101B9000FF23FA6828212320FFF726FF16E0FB68C1
:101BA000282B09DDBB68FF221A707B6800221A709F
:101BB0003B6800221A7009E0BB6800221A707B683B
:101BC00000221A703B6800221A70FFE700BF10372E
:101BD000BD4680BD80B58CB008AFF860B9607A6052
:101BE0003B60FB68312B16DC3B6807937B680693F0
:101BF000BB68059300230493FF230393FF23029301
:101C00000023019300230093FF23FA683221002070
:101C1000FFF7EAFE70E0FB68312B19DDFB68452B0E
:101C200016DC3B6807937B680693BB680593FF232C
:101C300004930023039300230293002301930023C2
:101C400000930023FA6846213220FFF7CDFE53E0CF
:101C5000FB68452B19DDFB684F2B16DC3B680793AF
:101C60007B680693BB68059300230493802303934A
:101C7000FF23029300230193FF230093FF23FA68BD
:101C800050214620FFF7B0FE36E0FB684F2B19DDF0
:101C9000FB68592B16DC3B6807937B680693BB688F
:101CA00005930023049300230393FF23029300234F
:101CB000019380230093FF23FA685A215020FFF7F5
:101CC00093FE19E0FB68592B0CDDFB68642B09DCE3
:101CD000BB68FF221A707B6800221A703B680022E2
:101CE0001A7009E0BB6800221A707B6800221A7023
:101CF0003B6800221A70FFE700BF1037BD4680BD69
:101D000080B584B000AF78603960FFF7D1FD002363
:101D1000FB730023BB7300237B7300233B730023FF
:101D2000FB720023BB7207F10D0307F10E0207F1EE
:101D30000F017868FFF7D5FE07F10A0307F10B02E0
:101D400007F10C013868FFF745FFFB7B1946BB7BA9
:101D50001A467B7B0020FFF7C5FD3B7B1946FB7ACB
:101D60001A46BB7A0220FFF7BDFDFFF727FE00BF32
:101D70001037BD4680BD000080B500AF00F02AFDE1
:101D800000F018F800F090F900F056F800F044F96F
:101D900000F06CF900F0CAF800F07CF8044804F098
:101DA000C5FDFFF7F5FAFFF715FBFFF75BFBFAE759
:101DB0002804002080B590B000AF07F11803282256
:101DC0000021184606F0B8FC3B1D00221A605A603C
:101DD0009A60DA601A610223BB610123BB6210239F
:101DE000FB6202237B630023BB634FF42013FB637E
:101DF00007F11803184604F03BF90346002B01D005
:101E000000F0ACF90F237B600223BB600023FB6072
:101E10004FF480633B6100237B613B1D0121184629
:101E200004F0A6FB0346002B01D000F097F900BF99
:101E30004037BD4680BD000080B500AF124B134A4D
:101E40001A60114B124A5A600F4B00229A600E4BD7
:101E50000022DA600C4B4FF480421A610A4B0022D8
:101E60005A61094B00229A61074B0022DA61064B46
:101E700000221A62044801F08BFA0346002B01D0BD
:101E800000F06CF900BF80BD380200200054004013
:101E9000A086010080B586B000AF07F108030022DC
:101EA0001A605A609A60DA603B4600221A605A60F3
:101EB0001D4B4FF080421A601B4B41F2BF225A600B
:101EC000194B00229A60184B6322DA60164B0022ED
:101ED0001A61154B00229A61134804F0D7FC03469F
:101EE000002B01D000F03AF94FF48053BB6007F1AA
:101EF000080319460C4805F0DDF90346002B01D014
:101F000000F02CF900233B6000237B603B46194620
:101F1000054805F045FE0346002B01D000F01EF9F0
:101F200000BF1837BD4680BD2804002080B58EB0A4
:101F300000AF07F1280300221A605A609A60DA6045
:101F400007F1200300221A605A603B1D00221A602C
:101F50005A609A60DA601A615A619A612C4B2D4A74
:101F60001A602B4B13225A60294B00229A60284B8F
:101F70000222DA60264B00221A61254B00229A6168
:101F8000234804F083FC0346002B01D000F0E6F860
:101F90004FF48053BB6207F1280319461C4805F033
:101FA00089F90346002B01D000F0D8F8184804F056
:101FB0000FFD0346002B01D000F0D0F800233B6258
:101FC00000237B6207F120031946114805F0E8FD64
:101FD0000346002B01D000F0C1F860237B60002392
:101FE000BB600023FB6000237B613B1D0022194680
:101FF000074805F09DF80346002B01D000F0AEF82D
:10200000034800F009FA00BF3837BD4680BD00BF65
:102010009C0300200004004080B500AF114B124A21
:102020001A60104B4FF4E1325A600E4B00229A6056
:102030000C4B0022DA600B4B00221A61094B0C2278
:102040005A61084B00229A61064B0022DA6105486A
:1020500005F016FE0346002B01D000F07FF800BF0C
:1020600080BD00BF700400200044004080B582B0F5
:1020700000AF0C4B5B690B4A43F001035361094B02
:102080005B6903F001037B607B6800220021102064
:1020900000F0FDFC102000F016FD00BF0837BD4623
:1020A00080BD00BF0010024080B586B000AF07F1D0
:1020B000080300221A605A609A60DA60174B9B6925
:1020C000164A43F004039361144B9B6903F0040325
:1020D0007B607B68114B9B69104A43F00803936156
:1020E0000E4B9B6903F008033B603B6800222021F4
:1020F0000B4801F035F92023BB600123FB6000236E
:102100003B6102237B6107F108031946044800F094
:10211000A3FF00BF1837BD4680BD00BF00100240BE
:102120000008014080B582B000AF786000F04AF846
:1021300000BF0837BD4680BD80B582B000AF786073
:102140000021054804F03EFE034B1B6800225A6341
:1021500000BF0837BD4680BD9C03002080B400AF9F
:1021600072B600BFFEE7000080B483B000AF034644
:10217000FB71FB79034AD35C18460C37BD4680BC23
:10218000704700BF2802002080B483B000AF034630
:102190003960FB71FB79084A0021D154074B1A685A
:1021A000FB793968B1FBF2F2054941F8232000BF01
:1021B0000C37BD4680BC704728020020000000207C
:1021C0000002002080B483B000AF0023FB711AE04E
:1021D000FB79114A52F82330002B11D0FB790E4ABB
:1021E00052F82320013A0C4941F82320FB790A4A8E
:1021F00052F82330002B03D1FB79084A0121D15436
:10220000FB790133FB71FB79092BE1D900BF00BFDA
:102210000C37BD4680BC7047000200202802002019
:1022200080B485B000AF154B9B69144A43F001039D
:102230009361124B9B6903F00103BB60BB680F4BBA
:10224000DB690E4A43F08053D3610C4BDB6903F02A
:1022500080537B607B680A4B5B68FB60FB6823F004
:10226000E063FB60FB6843F00073FB60044AFB68BB
:10227000536000BF1437BD4680BC70470010024059
:102280000000014080B58AB000AF786007F1140308
:1022900000221A605A609A60DA607B681B68254ADF
:1022A000934242D1244B9B69234A43F00803936134
:1022B000214B9B6903F008033B613B694FF440737A
:1022C0007B611223BB6103233B6207F114031946B0
:1022D0001A4800F0C1FE1A4B5B687B627B6A43F0D0
:1022E000E0637B627B6A43F002037B62144A7B6A91
:1022F0005360114BDB69104A43F40013D3610E4B5A
:10230000DB6903F40013FB60FB68002200211F203F
:1023100000F0BDFB1F2000F0D6FB00220021202092
:1023200000F0B5FB202000F0CEFB00BF2837BD46F3
:1023300080BD00BF0054004000100240000C01406E
:102340000000014080B584B000AF78607B681B68F6
:10235000B3F1804F14D12C4BDB692B4A43F00103BE
:10236000D361294BDB6903F00103FB60FB680022AA
:1023700000211C2000F08BFB1C2000F0A4FB3EE0A1
:102380007B681B68214A934239D11F4BDB691E4A87
:1023900043F00203D3611C4BDB6903F00203BB6013
:1023A000BB681B4B1B4A1A60194B10225A60184B12
:1023B00000229A60164B8022DA60154B4FF480722F
:1023C0001A61134B4FF480625A61114B00229A61DB
:1023D0000F4B0022DA610E4800F090FB0346002B01
:1023E00001D0FFF7BBFE7B68094A5A62084A7B6846
:1023F00053627B68064A9A63054A7B68536200BF52
:102400001037BD4680BD00BF0010024000040040F0
:10241000E40300206C00024080B588B000AF786013
:1024200007F10C0300221A605A609A60DA607B6838
:102430001B68184A934229D1174B9B69164A43F0EF
:1024400008039361144B9B6903F00803BB60BB68EE
:102450001023FB6002233B610223BB6107F10C03E5
:1024600019460E4800F0F8FD0D4B5B68FB61FB69F7
:1024700023F44063FB61FB6943F0E063FB61FB69AC
:1024800043F40063FB61064AFB69536000BF2037D9
:10249000BD4680BD0004004000100240000C014019
:1024A0000000014080B588B000AF786007F11003EC
:1024B00000221A605A609A60DA607B681B681F4AC3
:1024C000934237D11E4BDB691D4A43F40033D3617D
:1024D0001B4BDB6903F40033FB60FB68184B9B6903
:1024E000174A43F004039361154B9B6903F00403FF
:1024F000BB60BB6804233B6102237B610323FB6158
:1025000007F1100319460F4800F0A6FD08233B61B0
:1025100000237B610023BB6107F1100319460948C2
:1025200000F09AFD00220021262000F0B0FA2620BB
:1025300000F0C9FA00BF2037BD4680BD004400400E
:10254000001002400008014080B400AFFEE780B4F4
:1025500000AFFEE780B400AFFEE780B400AFFEE757
:1025600080B400AFFEE780B400AF00BFBD4680BCC2
:10257000704780B400AF00BFBD4680BC704780B4D8
:1025800000AF00BFBD4680BC704780B500AF00F013
:1025900067F900BF80BD000080B500AF024800F0C1
:1025A0001BFC00BF80BD00BFE403002080B500AF6E
:1025B000024804F0CDFC00BF80BD00BF280400200D
:1025C00080B500AF024801F0D3FC00BF80BD00BF62
:1025D0003802002080B500AF024801F03AFE00BF8B
:1025E00080BD00BF3802002080B500AF024805F072
:1025F00097FB00BF80BD00BF7004002080B400AF17
:1026000001231846BD4680BC704780B582B000AF3C
:102610007860396006F066F8034616221A604FF0BB
:10262000FF3318460837BD4680BD80B582B000AF85
:1026300078604FF0FF317868FFF7E7FFFEE780B57D
:1026400086B000AFF860B9607A6000237B610AE071
:10265000AFF300800146BB685A1CBA60CAB21A7058
:102660007B6901337B617A697B689A42F0DB7B6826
:1026700018461837BD4680BD80B586B000AFF860FB
:10268000B9607A6000237B6109E0BB685A1CBA60BC
:102690001B781846AFF300807B6901337B617A6950
:1026A0007B689A42F1DB7B6818461837BD4680BDCF
:1026B00080B483B000AF78604FF0FF3318460C371A
:1026C000BD4680BC704780B483B000AF786039608D
:1026D0003B684FF400525A60002318460C37BD4641
:1026E00080BC704780B483B000AF78600123184687
:1026F0000C37BD4680BC704780B485B000AFF86031
:10270000B9607A60002318461437BD4680BC704714
:1027100080B586B000AF7860144A154BD31A7B6140
:102720007B693B61134B1B68002B02D1114B124A92
:102730001A60104B1A687B6813443A699A4207D2B0
:1027400005F0D0FF03460C221A604FF0FF3309E07A
:10275000084B1B68FB60074B1A687B681344054AEB
:102760001360FB6818461837BD4680BD0050002036
:10277000000400002C020020D004002080B400AF30
:1027800000BFBD4680BC7047FFF7F8FF0B480C49FF
:102790000C4A002302E0D458C4500433C4188C42BD
:1027A000F9D3094A094C002301E013600432A24224
:1027B000FBD305F09DFFFFF7DFFA70470000002014
:1027C000E001002054B90008E0010020CC04002002
:1027D000FEE7000080B500AF084B1B68074A43F0D6
:1027E00010031360032000F047F90F2000F008F8F1
:1027F000FFF716FD0023184680BD00BF00200240F1
:1028000080B582B000AF7860124B1A68124B1B780B
:1028100019464FF47A73B3FBF1F3B2FBF3F31846A6
:1028200000F05FF90346002B01D001230EE07B6826
:102830000F2B0AD8002279684FF0FF3000F027F9FB
:10284000064A7B681360002300E00123184608371E
:10285000BD4680BD040000200C00002008000020C0
:1028600080B400AF054B1B781A46054B1B68134418
:10287000034A136000BFBD4680BC70470C000020B7
:10288000B804002080B400AF024B1B681846BD4658
:1028900080BC7047B804002080B584B000AF786079
:1028A000FFF7F0FFB8607B68FB60FB68B3F1FF3FA8
:1028B00005D00A4B1B781A46FB681344FB6000BF27
:1028C000FFF7E0FF0246BB68D31AFA689A42F7D8CE
:1028D00000BF00BF1037BD4680BD00BF0C00002008
:1028E00080B485B000AF78607B6803F00703FB60BD
:1028F0000C4BDB68BB60BA684FF6FF031340BB604C
:10290000FB681A02BB68134343F0BF6343F4003310
:10291000BB60044ABB68D36000BF1437BD4680BCAF
:10292000704700BF00ED00E080B400AF044BDB68EF
:102930001B0A03F007031846BD4680BC704700BF62
:1029400000ED00E080B483B000AF0346FB7197F95F
:102950000730002B0BDBFB7903F01F02064997F9C8
:1029600007305B09012000FA02F241F8232000BF82
:102970000C37BD4680BC704700E100E080B483B0F6
:1029800000AF03463960FB7197F90730002B0ADB73
:102990003B68DAB20C4997F907301201D2B20B4406
:1029A00083F800230AE03B68DAB20849FB7903F0B8
:1029B0000F03043B1201D2B20B441A7600BF0C374E
:1029C000BD4680BC704700BF00E100E000ED00E0C4
:1029D00080B489B000AFF860B9607A60FB6803F03A
:1029E0000703FB61FB69C3F10703042B28BF042322
:1029F000BB61FB690433062B02D9FB69033B00E092
:102A000000237B614FF0FF32BB6902FA03F3DA4324
:102A1000BB681A407B699A404FF0FF317B6901FA2D
:102A200003F3D9437B680B40134318462437BD4654
:102A300080BC704780B582B000AF78607B68013B96
:102A4000B3F1807F01D301230FE00A4A7B68013B89
:102A500053600F214FF0FF30FFF790FF054B00222E
:102A60009A60044B07221A60002318460837BD46B7
:102A700080BD00BF10E000E080B582B000AF78609C
:102A80007868FFF72DFF00BF0837BD4680BD80B5D1
:102A900086B000AF0346B9607A60FB7300237B61A8
:102AA000FFF742FF78617A68B9687869FFF790FFAD
:102AB000024697F90F3011461846FFF75FFF00BF37
:102AC0001837BD4680BD80B582B000AF0346FB71AC
:102AD00097F907301846FFF735FF00BF0837BD46A6
:102AE00080BD80B582B000AF78607868FFF7A2FF44
:102AF000034618460837BD4680BD000080B485B047
:102B000000AF78600023FB607B68002B01D10123BC
:102B100043E07B681B681A46224B1344224AA2FBFF
:102B200003231B099A007B681A647B681F4ADA63D7
:102B30007B68022283F821207B681B681B68FB608E
:102B4000FB6823F47F5323F03003FB607B685A68F3
:102B50007B689B681A437B68DB681A437B681B6948
:102B60001A437B685B691A437B689B691A437B68DD
:102B7000DB691343FA681343FB607B681B68FA68E0
:102B80001A607B6800229A637B68012283F8212007
:102B90007B68002283F82020002318461437BD46A6
:102BA00080BC7047F8FFFDBFCDCCCCCC000002400C
:102BB00080B586B000AFF860B9607A603B600023F2
:102BC000FB75FB6893F82030012B01D102234BE009
:102BD000FB68012283F82020FB6893F82130DBB2E8
:102BE000012B3AD1FB68022283F82120FB680022E6
:102BF0009A63FB681B681A68FB681B6822F0010275
:102C00001A603B687A68B968F86800F0F8F9FB6800
:102C1000DB6A002B08D0FB681B681A68FB681B681E
:102C200042F00E021A600FE0FB681B681A68FB682E
:102C30001B6822F004021A60FB681B681A68FB68B4
:102C40001B6842F00A021A60FB681B681A68FB687E
:102C50001B6842F001021A6005E0FB68002283F85D
:102C600020200223FB75FB7D18461837BD4680BD2A
:102C700080B485B000AF78600023FB737B6893F865
:102C80002130DBB2022B08D07B6804229A637B6878
:102C9000002283F82020012320E07B681B681A684B
:102CA0007B681B6822F00E021A607B681B681A683A
:102CB0007B681B6822F001021A607B681A6C7B68D3
:102CC000DB6B012101FA02F25A607B68012283F872
:102CD00021207B68002283F82020FB7B18461437D4
:102CE000BD4680BC7047000080B584B000AF7860FE
:102CF0000023FB737B6893F82130DBB2022B05D0F5
:102D00007B6804229A630123FB7351E07B681B6894
:102D10001A687B681B6822F00E021A607B681B68C9
:102D20001A687B681B6822F001021A607B681B68C6
:102D3000224A934229D07B681B68214A934222D0C1
:102D40007B681B681F4A93421AD07B681B681E4A27
:102D5000934212D07B681B681C4A93420AD07B685E
:102D60001B681B4A934202D14FF480130EE04FF0D0
:102D700080730BE04FF4803308E04FF4805305E09C
:102D80004FF4807302E0102300E00123114A5360E6
:102D90007B68012283F821207B68002283F82020B1
:102DA0007B685B6B002B03D07B685B6B7868984714
:102DB000FB7B18461037BD4680BD00BF08000240AF
:102DC0001C00024030000240440002405800024013
:102DD0006C0002400000024080B584B000AF786013
:102DE0007B68DB6B1B68FB607B681B681B68BB60D8
:102DF0007B681B6C04229A40FB681340002B4FD069
:102E0000BB6803F00403002B4AD07B681B681B6877
:102E100003F02003002B07D17B681B681A687B68CE
:102E20001B6822F004021A607B681B68664A9342A2
:102E300029D07B681B68654A934222D07B681B6857
:102E4000634A93421AD07B681B68624A934212D04D
:102E50007B681B68604A93420AD07B681B685F4AA4
:102E6000934202D14FF480030EE04FF080630BE0F9
:102E70004FF4802308E04FF4804305E04FF4806373
:102E800002E0402300E00423554A53607B68DB6A7C
:102E9000002B00F094807B68DB6A786898478EE0AE
:102EA0007B681B6C02229A40FB681340002B56D0B3
:102EB000BB6803F00203002B51D07B681B681B68C2
:102EC00003F02003002B0BD17B681B681A687B681A
:102ED0001B6822F00A021A607B68012283F8212015
:102EE0007B681B68384A934229D07B681B68374A45
:102EF000934222D07B681B68354A93421AD07B6884
:102F00001B68344A934212D07B681B68324A934252
:102F10000AD07B681B68314A934202D14FF40013F8
:102F20000EE04FF000730BE04FF4003308E04FF475
:102F3000005305E04FF4007302E0202300E0022379
:102F4000274A53607B68002283F820207B689B6AB5
:102F5000002B34D07B689B6A786898472FE07B68A9
:102F60001B6C08229A40FB681340002B28D0BB68DA
:102F700003F00803002B23D07B681B681A687B686A
:102F80001B6822F00E021A607B681A6C7B68DB6B90
:102F9000012101FA02F25A607B6801229A637B6880
:102FA000012283F821207B68002283F820207B689F
:102FB0001B6B002B04D07B681B6B7868984700BFA5
:102FC00000BF1037BD4680BD080002401C00024013
:102FD0003000024044000240580002406C000240B1
:102FE0000000024080B483B000AF78607B6893F843
:102FF0002130DBB218460C37BD4680BC704780B428
:1030000085B000AFF860B9607A603B60FB681A6C0D
:10301000FB68DB6B012101FA02F25A60FB681B6856
:103020003A685A60FB685B68102B08D1FB681B6824
:103030007A689A60FB681B68BA68DA6007E0FB6828
:103040001B68BA689A60FB681B687A68DA6000BF20
:103050001437BD4680BC704780B48BB000AF786039
:10306000396000237B6200233B6269E101227B6AB5
:1030700002FA03F3FB613B681B68FA691340BB610A
:10308000BA69FB699A4240F058813B685B689A4A8A
:1030900093425ED0984A934275D8984A934258D04A
:1030A000964A93426FD8964A934252D0944A93429A
:1030B00069D8944A93424CD0924A934263D8924A38
:1030C000934246D0904A93425DD8122B2AD8122BB5
:1030D00059D801A252F823F0533100082D310008CD
:1030E0003F3100088131000887310008873100082E
:1030F00087310008873100088731000887310008D0
:1031000087310008873100088731000887310008BF
:103110008731000887310008873100083531000801
:1031200049310008794A934213D02CE03B68DB68B0
:103130003B6229E03B68DB6804333B6224E03B6888
:10314000DB6808333B621FE03B68DB680C333B62A3
:103150001AE03B689B68002B02D104233B6213E01A
:103160003B689B68012B05D108233B627B68FA69A9
:103170001A6109E008233B627B68FA695A6103E03F
:1031800000233B6200E000BFBB69FF2B01D87B68D6
:1031900001E07B6804337B61BB69FF2B02D87B6A4B
:1031A0009B0002E07B6A083B9B003B617B691A68DD
:1031B0000F213B6901FA03F3DB431A40396A3B698B
:1031C00001FA03F31A437B691A603B685B6803F0FA
:1031D0008053002B00F0B1804D4B9B694C4A43F06B
:1031E000010393614A4B9B6903F00103BB60BB6819
:1031F000484A7B6A9B08023352F82330FB607B6AA3
:1032000003F003039B000F2202FA03F3DB43FA6887
:103210001340FB607B68404A934213D07B683F4A6F
:1032200093420DD07B683E4A934207D07B683D4A6B
:10323000934201D1032306E0042304E0022302E0C9
:10324000012300E000237A6A02F003029200934017
:10325000FA681343FB602F497B6A9B080233FA68C4
:1032600041F823203B685B6803F48013002B06D0F1
:103270002D4B9A682C49BB6913438B6006E02A4B9F
:103280009A68BB69DB43284913408B603B685B68E5
:1032900003F40013002B06D0234BDA682249BB69E4
:1032A0001343CB6006E0204BDA68BB69DB431E4961
:1032B0001340CB603B685B6803F40033002B06D0FF
:1032C000194B5A681849BB6913434B6006E0164B0B
:1032D0005A68BB69DB43144913404B603B685B6829
:1032E00003F48033002B21D00F4B1A680E49BB69C1
:1032F00013430B6021E000BF0000321000003110CA
:103300000000221000002110000012100000111017
:10331000001002400000014000080140000C014084
:103320000010014000140140000401400B4B1A68DA
:10333000BB69DB43094913400B607B6A01337B6245
:103340003B681A687B6A22FA03F3002B7FF48EAE87
:1033500000BF00BF2C37BD4680BC70470004014051
:1033600080B483B000AF78600B467B8013467B70DF
:103370007B78002B03D07A887B681A6103E07B8816
:103380001A047B681A6100BF0C37BD4680BC7047C9
:1033900080B584B000AF78607B68002B01D1012339
:1033A0002BE17B6893F83D30DBB2002B06D17B68C4
:1033B000002283F83C207868FEF764FF7B682422B3
:1033C00083F83D207B681B681A687B681B6822F0C5
:1033D00001021A607B681B681A687B681B6842F4EC
:1033E00000421A607B681B681A687B681B6822F4BD
:1033F00000421A6003F004FAF8607B685B68814A57
:10340000934207D8FB68804A934294BF012300236C
:10341000DBB206E0FB687D4A934294BF01230023A0
:10342000DBB2002B01D00123E7E0FB68784AA2FB66
:1034300003239B0CBB607B681B685B6823F03F0128
:103440007B681B68BA680A435A607B681B681B6A02
:1034500023F03F017B685B686A4A934202D8BB68ED
:10346000013309E0BB684FF4967202FB03F3694A2B
:10347000A2FB03239B0901337A6812680B43136292
:103480007B681B68DB6923F44F4222F0FF027B68F4
:103490005B685C498B4219D8FB68591E7B685B6886
:1034A0005B00B1FBF3F3591C40F6FC730B40002B9F
:1034B0000AD0FB68591E7B685B685B00B1FBF3F3C5
:1034C0000133C3F30B0351E004234FE07B689B6897
:1034D000002B11D1FB68581E7B6859680B465B00B6
:1034E0000B44B0FBF3F30133C3F30B03002B0CBF0E
:1034F00001230023DBB212E0FB68581E7B68596889
:103500000B469B000B4499000B44B0FBF3F30133D3
:10351000C3F30B03002B0CBF01230023DBB2002BF2
:1035200001D0012322E07B689B68002B0ED1FB6851
:10353000581E7B6859680B465B000B44B0FBF3F3E5
:103540000133C3F30B0343F400430FE0FB68581E41
:103550007B6859680B469B000B4499000B44B0FBF9
:10356000F3F30133C3F30B0343F440437968096871
:103570001343CB617B681B681B6823F0C0017B6829
:10358000DA697B681B6A1A437B681B680A431A6006
:103590007B681B689B6823F4034323F0FF037A686E
:1035A00011697A68D26811437A6812680B43936094
:1035B0007B681B68DB6823F0FF017B685A697B68C6
:1035C0009B691A437B681B680A43DA607B681B6847
:1035D0001A687B681B6842F001021A607B6800224F
:1035E0001A647B68202283F83D207B6800221A63DE
:1035F0007B68002283F83E20002318461037BD4622
:1036000080BD00BFA08601007F841E00FF083D0032
:1036100083DE1B43D34D621080B483B000AF78606B
:103620007B681B685B6903F08003802B03D17B6898
:103630001B6800221A6100BF0C37BD4680BC704772
:1036400080B588B002AFF8607A601A460B467B817D
:1036500013463B81FFF716F97861FB6893F83D301C
:10366000DBB2202B40F0E0807B690093192301221C
:103670007049F86802F07AFA0346002B01D0022361
:10368000D3E0FB6893F83C30012B01D10223CCE05E
:10369000FB68012283F83C20FB681B681B6803F071
:1036A0000103012B07D0FB681B681A68FB681B68C5
:1036B00042F001021A60FB681B681A68FB681B680D
:1036C00022F400621A60FB68212283F83D20FB6827
:1036D000102283F83E20FB6800221A64FB687A6897
:1036E0005A62FB683A895A85FB685B8D9AB2FB681F
:1036F0001A85FB68504ADA6279897B693A6AF86808
:1037000002F03CF80346002B01D001238DE000239A
:103710003B61FB681B685B693B61FB681B689B69DD
:103720003B613B6966E07A69396AF86802F038FB08
:103730000346002B0DD0FB681B6C042B07D1FB68E4
:103740001B681A68FB681B6842F400721A60012348
:103750006BE0FB685B6A1A78FB681B681A61FB68A0
:103760005B6A5A1CFB685A62FB685B8D9BB2013B2B
:103770009AB2FB685A85FB681B8D013B9AB2FB68C5
:103780001A85FB681B685B6903F00403042B1BD1DB
:10379000FB681B8D002B17D0FB685B6A1A78FB68EF
:1037A0001B681A61FB685B6A5A1CFB685A62FB68FB
:1037B0005B8D9BB2013B9AB2FB685A85FB681B8DFF
:1037C000013B9AB2FB681A857A69396AF86802F097
:1037D0002FFB0346002B0DD0FB681B6C042B07D17D
:1037E000FB681B681A68FB681B6842F400721A6069
:1037F00001231AE0FB681B8D002B94D1FB681B682A
:103800001A68FB681B6842F400721A60FB68202289
:1038100083F83D20FB68002283F83E20FB680022ED
:1038200083F83C20002300E0022318461837BD46E9
:1038300080BD00BF020010000000FFFF80B58CB00B
:1038400002AFF8607A601A460B467B8113463B81D3
:1038500000233B62FFF716F87862FB6893F83D306F
:10386000DBB2202B40F04B827B6A009319230122AC
:103870007F49F86802F07AF90346002B01D0022351
:103880003EE2FB6893F83C30012B01D1022337E282
:10389000FB68012283F83C20FB681B681B6803F06F
:1038A0000103012B07D0FB681B681A68FB681B68C3
:1038B00042F001021A60FB681B681A68FB681B680B
:1038C00022F400621A60FB68222283F83D20FB6824
:1038D000102283F83E20FB6800221A64FB687A6895
:1038E0005A62FB683A895A85FB685B8D9AB2FB681D
:1038F0001A85FB685F4ADA6279897B6A3A6BF868F5
:1039000001F0BEFF0346002B01D00123F8E1FB6864
:103910001B8D002B13D10023FB61FB681B685B69C7
:10392000FB61FB681B689B69FB61FB69FB681B68AB
:103930001A68FB681B6842F400721A60CCE1FB68ED
:103940001B8D012B1ED1FB681B681A68FB681B6866
:1039500022F480621A6072B600BF0023BB61FB686C
:103960001B685B69BB61FB681B689B69BB61BB69CA
:10397000FB681B681A68FB681B6842F400721A60D7
:1039800062B635E0FB681B8D022B1ED1FB681B68FD
:103990001A68FB681B6842F400621A6072B600BFC6
:1039A00000237B61FB681B685B697B61FB681B68AC
:1039B0009B697B617B69FB681B681A68FB681B68F5
:1039C00022F480621A6062B612E0FB681B681A6813
:1039D000FB681B6842F480621A6000233B61FB684D
:1039E0001B685B693B61FB681B689B693B613B69CA
:1039F00072E1FB681B8D032B00F21F81FB681B8D9E
:103A0000012B23D17A6A396BF86802F08BFA0346EE
:103A1000002B01D0012373E1FB681B681A69FB6866
:103A20005B6AD2B21A70FB685B6A5A1CFB685A6206
:103A3000FB681B8D013B9AB2FB681A85FB685B8DA6
:103A40009BB2013B9AB2FB685A8545E1FB681B8D2E
:103A5000022B52D17B6A00933B6B00220649F86827
:103A600002F084F80346002B08D0012348E100BF90
:103A7000020010000000FFFF0400010072B600BF4A
:103A8000FB681B681A68FB681B6842F400721A60C6
:103A9000FB681B681A69FB685B6AD2B21A70FB6824
:103AA0005B6A5A1CFB685A62FB681B8D013B9AB229
:103AB000FB681A85FB685B8D9BB2013B9AB2FB6881
:103AC0005A8562B600BFFB681B681A69FB685B6AAF
:103AD000D2B21A70FB685B6A5A1CFB685A62FB68B8
:103AE0001B8D013B9AB2FB681A85FB685B8D9BB20C
:103AF000013B9AB2FB685A85EEE07B6A00933B6B10
:103B000000228149F86802F031F80346002B01D009
:103B10000123F5E0FB681B681A68FB681B6822F448
:103B200080621A6072B600BFFB681B681A69FB6886
:103B30005B6AD2B21A70FB685B6A5A1CFB685A62F5
:103B4000FB681B8D013B9AB2FB681A85FB685B8D95
:103B50009BB2013B9AB2FB685A856C4B1B68DB0831
:103B60006B4AA2FB03231A0A13469B001344DA0094
:103B7000D31A3B623B6A013B3B623B6A002B18D184
:103B8000FB6800221A63FB68202283F83D20FB6853
:103B9000002283F83E20FB681B6C43F02002FB6888
:103BA0001A6462B600BFFB68002283F83C20012340
:103BB000A6E0FB681B685B6903F00403042BD9D102
:103BC000FB681B681A68FB681B6842F400721A6085
:103BD000FB681B681A69FB685B6AD2B21A70FB68E3
:103BE0005B6A5A1CFB685A62FB681B8D013B9AB2E8
:103BF000FB681A85FB685B8D9BB2013B9AB2FB6840
:103C00005A8562B600BFFB681B681A69FB685B6A6D
:103C1000D2B21A70FB685B6A5A1CFB685A62FB6876
:103C20001B8D013B9AB2FB681A85FB685B8D9BB2CA
:103C3000013B9AB2FB685A854EE07A6A396BF868A4
:103C400002F070F90346002B01D0012358E0FB6815
:103C50001B681A69FB685B6AD2B21A70FB685B6A00
:103C60005A1CFB685A62FB681B8D013B9AB2FB68C9
:103C70001A85FB685B8D9BB2013B9AB2FB685A8543
:103C8000FB681B685B6903F00403042B24D1FB6809
:103C90001B8D032B07D1FB681B681A68FB681B6828
:103CA00022F480621A60FB681B681A69FB685B6A11
:103CB000D2B21A70FB685B6A5A1CFB685A62FB68D6
:103CC0001B8D013B9AB2FB681A85FB685B8D9BB22A
:103CD000013B9AB2FB685A85FB681B8D002B7FF471
:103CE00088AEFB68202283F83D20FB68002283F821
:103CF0003E20FB68002283F83C20002300E00223E2
:103D000018462837BD4680BD04000100040000208D
:103D100089B5F81480B58AB002AFF8607A603B606C
:103D20000B467B81FEF7AEFDF8610023BB61FB68AB
:103D300093F83D30DBB2202B40F01181FB690093FA
:103D4000192301228849F86801F010FF0346002B6F
:103D500001D0022304E1FB6893F83C30012B01D130
:103D60000223FDE0FB68012283F83C20FB681B680E
:103D70001B6803F00103012B07D0FB681B681A685E
:103D8000FB681B6842F001021A60FB681B681A6836
:103D9000FB681B6822F400621A60FB68242283F827
:103DA0003D20FB6800221A64FB68704ADA62FB68F7
:103DB0001B681A68FB681B6842F480721A60FB6912
:103DC00000933B6800224FF00111F86801F0CEFE2D
:103DD0000346002B0DD0FB681B681B6803F480733F
:103DE000B3F5807F03D1FB684FF400721A6403239C
:103DF000B6E07B89DBB21A46FB681B6802F0FE0264
:103E00001A61FEF73FFDF861FB681B685B6903F010
:103E10000203022B0CBF01230023DBB2FB75FB68FE
:103E20001B685B6903F48063B3F5806F0CBF0123EB
:103E30000023DBB2BB7525E0FEF724FD0246FB69DB
:103E4000D31A3A689A4202D33B68002B03D1FB682D
:103E5000A02283F83D20FB681B685B6903F0020326
:103E6000022B0CBF01230023DBB2FB75FB681B6830
:103E70005B6903F48063B3F5806F0CBF01230023FB
:103E8000DBB2BB75FB6893F83D30DBB2A02B05D0ED
:103E9000FB7D002B02D1BB7D002BCDD0FB68202207
:103EA00083F83D20FB681B685B6903F00203022B6B
:103EB00029D1FB681B681A68FB681B6842F4007212
:103EC0001A6000233B61FB681B685B693B61FB6810
:103ED0001B689B693B613B69FB69009319230122C5
:103EE0002149F86801F042FE0346002B01D001236E
:103EF00036E0FB68202283F83D20FB68002283F82F
:103F00003C2000232CE0FB681B681A68FB681B68D8
:103F100042F400721A60FB681B686FF480625A6199
:103F2000FB690093192301220F49F86801F01EFE76
:103F30000346002B01D0012312E0BB690133BB61B2
:103F4000BA697B689A42FFF432AFFB68202283F89B
:103F50003D20FB68002283F83C20012300E002237F
:103F600018462037BD4680BD020010000000FFFF4C
:103F700080B588B000AF78600023BB617B681B68A8
:103F80005B687B617B68DB6A3B617B6893F83E30F2
:103F9000FB737B6893F83D30BB73FB7B102B03D026
:103FA000FB7B402B40F0C1807B681B689B69BB6139
:103FB0007B681B685B69FB61FB6903F00103002BF5
:103FC0000DD13B69B3F52A0F03D03B69B3F12A4FFA
:103FD00001D1012300E00023012B00F03281FB69B5
:103FE00003F00103002B0CD07B695B0A03F0010393
:103FF000002B06D0786802F020F8786800F099FD70
:1040000092E0FB69DB0803F00103002B09D07B6918
:104010005B0A03F00103002B03D0786800F00EFE6A
:1040200082E0FB695B0803F00103002B09D07B6988
:104030005B0A03F00103002B03D0786800F027FE31
:1040400072E0BB699B0803F00103002B3BD07B6847
:104050001B685B6803F40063B3F5006F00F0F38046
:10406000FB69DB0903F00103002B0FD07B699B0A7E
:1040700003F00103002B09D0FB699B0803F0010347
:10408000002B03D1786800F0F1F94DE0FB699B0843
:1040900003F00103002B00F0D6807B695B0A03F07C
:1040A0000103002B00F0CF80BB7B212B03D178686C
:1040B00000F078FAC7E0FB7B402B40F0C4807868C2
:1040C00000F0E6FABFE07B681B685B6803F40063FE
:1040D000B3F5006F00F0B780FB699B0903F00103A3
:1040E000002B0FD07B699B0A03F00103002B09D042
:1040F000FB699B0803F00103002B03D1786800F0F3
:104100005FFB11E0FB699B0803F00103002B00F04B
:104110009A807B695B0A03F00103002B00F0938017
:10412000786800F015FC8EE08DE07B681B6C002B3E
:1041300004D07B681B685B69FB6107E07B681B68D8
:104140009B69BB617B681B685B69FB61FB695B0802
:1041500003F00103002B12D07B695B0A03F001031B
:10416000002B0CD07B681B6C002B03D07B681B687A
:104170009B69BB61B969786800F0E0FF66E0FB69A4
:104180001B0903F00103002B09D07B695B0A03F0D4
:104190000103002B03D0786801F01AF856E0BB7BCE
:1041A000212B02D0BB7B292B25D1FB69DB0903F036
:1041B0000103002B0FD07B699B0A03F00103002B46
:1041C00009D0FB699B0803F00103002B03D1786839
:1041D00000F0F8FE39E0FB699B0803F00103002BB7
:1041E00033D07B695B0A03F00103002B2DD0786884
:1041F00000F025FF29E0FB699B0903F00103002B78
:104200000FD07B699B0A03F00103002B09D0FB69E7
:104210009B0803F00103002B03D1786800F02FFF07
:1042200014E0FB699B0803F00103002B0ED07B69AF
:104230005B0A03F00103002B08D0786800F05DFFF3
:1042400004E000BF02E000BF00E000BF2037BD4631
:1042500080BD80B58AB000AF78607B681B685B6901
:104260003B627B681B685B68FB6100237B627B6849
:1042700093F83E30FB763B6A1B0A03F00103002BE8
:1042800016D0FB691B0A03F00103002B10D07B6AD8
:1042900043F001037B627B681B686FF480725A6194
:1042A0007B681B681A687B681B6842F400421A60CE
:1042B0003B6A5B0A03F00103002B0ED0FB691B0A6B
:1042C00003F00103002B08D07B6A43F002037B62FA
:1042D0007B681B686FF400725A613B6A9B0A03F0AB
:1042E0000103002B3FD0FB691B0A03F00103002BE5
:1042F00039D0FB7EBB767B685B8D9BB27B617B6834
:1043000093F83D30FB747B681B6BFB60BB7E202BFE
:1043100012D17B69002B0FD1FB7C212B08D0FB7CB9
:10432000292B05D0FB7C282B06D1FB68212B03D140
:10433000786801F07DF816E07B681B686FF4806296
:104340005A617B6A43F004037B62FB7E102B02D030
:10435000FB7E402B07D17B681B681A687B681B6853
:1043600042F400721A603B6ADB0A03F00103002B7F
:104370000ED0FB691B0A03F00103002B08D07B6AF7
:1043800043F008037B627B681B686FF400625A612C
:104390007B6A002B08D07B681A6C7B6A1A437B68A7
:1043A0001A64786801F0B8F800BF2837BD4680BDB0
:1043B00080B483B000AF786000BF0C37BD4680BCCE
:1043C000704780B483B000AF786000BF0C37BD4643
:1043D00080BC704780B483B000AF786000BF0C37FA
:1043E000BD4680BC704780B483B000AF786000BF2A
:1043F0000C37BD4680BC704780B483B000AF786096
:104400000B46FB7013463B8000BF0C37BD4680BC9B
:10441000704780B483B000AF786000BF0C37BD46F2
:1044200080BC704780B483B000AF786000BF0C37A9
:10443000BD4680BC704780B483B000AF786000BFD9
:104440000C37BD4680BC704780B483B000AF786045
:1044500000BF0C37BD4680BC704780B483B000AF4E
:10446000786000BF0C37BD4680BC704780B584B013
:1044700000AF78607B6893F83D30FB737B6893F8FE
:104480003E30BB737B68DB6ABB607B681B8D002B97
:1044900050D1FB7B212B4DD1BB68082B1DD0BB68B5
:1044A000202B1AD0BB6813F5803F16D07B681B68A1
:1044B0005A687B681B6822F4E0625A607B681122AC
:1044C0001A637B68002283F83E207B68202283F8F1
:1044D0003D207868FFF76CFF60E07B681B685A68D6
:1044E0007B681B6822F4E0625A607B681B681A686C
:1044F0007B681B6842F400721A607B6800221A63B2
:104500007B68202283F83D207B6893F83E30DBB245
:10451000402B07D17B68002283F83E207868FFF7A4
:1045200081FF3BE07B68002283F83E207868FFF73C
:104530003FFF33E0FB7B212B05D0BB7B402B2DD1F4
:10454000FB7B222B2AD17B685B8D9BB2002B08D191
:104550007B681B685A687B681B6822F480625A601B
:104560001CE07B6893F83E30DBB2402B03D17868C7
:1045700000F08EF812E07B685B6A1A787B681B6833
:104580001A617B685B6A5A1C7B685A627B685B8D28
:104590009BB2013B9AB27B685A85FFE700BF103798
:1045A000BD4680BD80B584B000AF78607B68DB6AB3
:1045B000FB607B6893F83D30DBB2212B64D17B68D4
:1045C0005B8D9BB2002B12D07B685B6A1A787B688C
:1045D0001B681A617B685B6A5A1C7B685A627B683D
:1045E0005B8D9BB2013B9AB27B685A854CE0FB68BD
:1045F000082B1DD0FB68202B1AD0FB6813F5803FD9
:1046000016D07B681B685A687B681B6822F4E062DE
:104610005A607B6811221A637B68002283F83E206F
:104620007B68202283F83D207868FFF7C1FE2BE0ED
:104630007B681B685A687B681B6822F4E0625A60DA
:104640007B681B681A687B681B6842F400721A60FA
:104650007B6800221A637B68202283F83D207B68F8
:1046600093F83E30DBB2402B07D17B68002283F801
:104670003E207868FFF7D6FE06E07B68002283F8CC
:104680003E207868FFF794FE00BF1037BD4680BD1E
:1046900080B584B000AF78607B6893F83D30FB73E1
:1046A0007B681B6D002B1DD17B68DB6C012B0BD154
:1046B0007B689B6CDAB27B681B681A617B681B6D38
:1046C0009A1C7B681A6577E07B689B6C9BB21B1217
:1046D000DAB27B681B681A617B681B6D5A1C7B68A9
:1046E0001A6569E07B681B6D012B0BD17B689B6CA5
:1046F000DAB27B681B681A617B681B6D5A1C7B6889
:104700001A6559E07B681B6D022B52D1FB7B222B73
:104710000DD17B681B681A687B681B6842F4807245
:104720001A607B681B6D5A1C7B681A6544E07B68C5
:104730005B8D9BB2002B15D0FB7B212B12D17B68AC
:104740005B6A1A787B681B681A617B685B6A5A1C13
:104750007B685A627B685B8D9BB2013B9AB27B6837
:104760005A8529E07B685B8D9BB2002B24D1FB7BB3
:10477000212B21D17B681B685A687B681B6822F457
:10478000E0625A607B681B681A687B681B6842F4A9
:1047900000721A607B6800221A637B68202283F80B
:1047A0003D207B68002283F83E207868FFF73AFEC0
:1047B00002E07868FEF730FF00BF1037BD4680BDCD
:1047C00080B584B000AF78607B6893F83D30DBB291
:1047D000222B40F0B9807B68DB6AFB607B685B8DD5
:1047E0009BB2BB60BB68032B21D97B681B681A692D
:1047F0007B685B6AD2B21A707B685B6A5A1C7B6802
:104800005A627B685B8D9BB2013B9AB27B685A858A
:104810007B685B8D9BB2032B40F096807B681B68A6
:104820005A687B681B6822F480625A608CE07B685F
:10483000DB6A022B7FD0BB68012B02D0BB68002B48
:1048400079D1786801F03CFB0346002B4CD17B68A2
:104850001B681A687B681B6822F480621A607B6898
:104860001B685A687B681B6822F4E0625A607B68A8
:104870001B681A697B685B6AD2B21A707B685B6AD4
:104880005A1C7B685A627B685B8D9BB2013B9AB273
:104890007B685A857B68202283F83D207B6893F8EB
:1048A0003E30DBB2402B0AD17B68002283F83E20E9
:1048B0007B6800221A637868FFF7BDFD44E07B68DF
:1048C000002283F83E20FB68082B02D0FB68202BD7
:1048D00003D17B6800221A6302E07B6812221A630C
:1048E0007868FFF76EFD2FE07B681B685A687B686D
:1048F0001B6822F4E0625A607B681B681A697B6857
:104900005B6AD2B21A707B685B6A5A1C7B685A6217
:104910007B685B8D9BB2013B9AB27B685A857B6852
:10492000202283F83D207B68002283F83E207868AF
:10493000FFF78AFD08E07B681B685A687B681B6884
:1049400022F480625A60FFE700BF1037BD4680BD89
:1049500080B584B000AF78607B68DB6AFB607B6801
:104960005B8D9BB2042B1BD17B681B685A687B68EC
:104970001B6822F480625A607B681B681A697B6836
:104980005B6AD2B21A707B685B6A5A1C7B685A6297
:104990007B685B8D9BB2013B9AB27B685A85C4E011
:1049A0007B685B8D9BB2032B29D17B681B685A689F
:1049B0007B681B6822F480625A60FB68042B0AD073
:1049C000FB68022B07D07B681B681A687B681B6832
:1049D00022F480621A607B681B681A697B685B6AD4
:1049E000D2B21A707B685B6A5A1C7B685A627B6819
:1049F0005B8D9BB2013B9AB27B685A8595E07B68E0
:104A00005B8D9BB2022B7DD1FB68012B02D0FB6832
:104A1000102B08D17B681B681A687B681B6822F41E
:104A200080621A6016E0FB68042B02D0FB68022B40
:104A300008D17B681B681A687B681B6842F4806237
:104A40001A6007E07B681B681A687B681B6842F481
:104A500000721A607B681B681A697B685B6AD2B255
:104A60001A707B685B6A5A1C7B685A627B685B8D34
:104A70009BB2013B9AB27B685A857B681B681A69B6
:104A80007B685B6AD2B21A707B685B6A5A1C7B686F
:104A90005A627B685B8D9BB2013B9AB27B685A85F8
:104AA0007B681B685A687B681B6822F440725A60F6
:104AB0007B68202283F83D207B6893F83E30DBB290
:104AC000402B0AD17B68002283F83E207B680022BD
:104AD0001A637868FFF7AFFC27E07B68002283F851
:104AE0003E20FB68082B02D0FB68202B03D17B689B
:104AF00000221A6302E07B6812221A637868FFF7CB
:104B000060FC12E07B681B681A697B685B6AD2B242
:104B10001A707B685B6A5A1C7B685A627B685B8D83
:104B20009BB2013B9AB27B685A8500BF1037BD46E5
:104B300080BD80B483B000AF78607B6893F83E306E
:104B4000DBB2402B17D17B681B6D002B09D17B6832
:104B50005B6CDBB21A467B681B6802F0FE021A61CE
:104B600067E07B685B6CDBB243F00103DAB27B6821
:104B70001B681A615DE07B681B69B3F5804F33D118
:104B80007B6893F83D30DBB2212B09D17B685B6CED
:104B9000DBB21A467B681B6802F0FE021A6108E06D
:104BA0007B685B6CDBB243F00103DAB27B681B68A5
:104BB0001A617B685B6B002B04D07B685B6B9B6A24
:104BC000002B08D17B689B6B002B32D07B689B6BE2
:104BD0009B6A002B2DD07B681B685A687B681B681A
:104BE00042F400625A6024E07B681B6D002B0ED1FA
:104BF0007B685B6C9BB2DB11DBB203F00603DBB2BC
:104C000063F00F03DAB27B681B681A6111E07B68FE
:104C10001B6D012B0DD17B685B6C9BB2DB11DBB292
:104C200003F00603DBB263F00E03DAB27B681B68A5
:104C30001A6100BF0C37BD4680BC704780B483B09A
:104C400000AF78607B685B6CDAB27B681B681A61C6
:104C50007B685B6B002B04D07B685B6B9B6A002BD3
:104C600008D17B689B6B002B0CD07B689B6B9B6A8D
:104C7000002B07D07B681B685A687B681B6842F46E
:104C800000625A6000BF0C37BD4680BC704780B4DC
:104C900091B000AF78607B6893F83E3087F83F3082
:104CA0007B68DB6ABB637B681B6B7B637B6893F809
:104CB0003D30DBB2222B40F074817B681B6D002BF2
:104CC0000FD197F83F30402B0BD100233B637B681B
:104CD0001B685B693B637B681B689B693B633B6B41
:104CE0006BE17B681B6D002B1DD17B681B69B3F5E5
:104CF000404F18D10023FB627B681B685B69FB6235
:104D00007B681B689B69FB62FB6A7B681B681A688F
:104D10007B681B6842F480721A607B681B6D5A1CAA
:104D20007B681A6549E17B685B8D9BB2002B13D1D0
:104D30000023BB627B681B685B69BB627B681B6886
:104D40009B69BB62BB6A7B681B681A687B681B68CF
:104D500042F400721A6020E17B685B8D9BB2012BEC
:104D600040F08A80BB6B13F5803F37D17B681B68AE
:104D70001A687B681B6822F480621A607B681B6873
:104D80005B6803F40063B3F5006F13D17B681B68A5
:104D90001A687B681B6822F480621A6000237B62B9
:104DA0007B681B685B697B627B681B689B697B62B5
:104DB0007B6AF2E000233B627B681B685B693B62B5
:104DC0007B681B689B693B623B6A7B681B681A684F
:104DD0007B681B6842F400721A60DEE0BB6B082B34
:104DE0002ED0BB6B202B2BD07B6B122B02D1BB6B3D
:104DF000012B25D1BB6B042B0ED0BB6B022B0BD030
:104E0000BB6B102B08D07B681B681A687B681B681B
:104E100022F480621A6007E07B681B681A687B686E
:104E20001B6842F480621A600023FB617B681B6888
:104E30005B69FB617B681B689B69FB61FB69ACE09C
:104E40007B681B681A687B681B6822F480621A60A2
:104E50000023BB617B681B685B69BB617B681B6867
:104E60009B69BB61BB697B681B681A687B681B68B0
:104E700042F400721A6090E07B685B8D9BB2022B5B
:104E800058D1BB6B042B21D0BB6B022B1ED0BB6B4C
:104E9000102B1BD07B681B681A687B681B6842F468
:104EA00000621A6000237B617B681B685B697B6121
:104EB0007B681B689B697B617B697B681B681A68E0
:104EC0007B681B6822F480621A6012E07B681B68B2
:104ED0001A687B681B6842F480621A6000233B6199
:104EE0007B681B685B693B617B681B689B693B61F6
:104EF0003B697B681B685B6803F40063B3F5006F74
:104F00004BD1BB6B13F5803F0BD0BB6B012B08D093
:104F1000BB6B082B05D0BB6B102B02D0BB6B202BBF
:104F20003BD17B681B685A687B681B6842F48052DF
:104F30005A6032E07B681B681A687B681B6842F421
:104F400080621A607B681B685B6803F40063B3F5DA
:104F5000006F17D1BB6B13F5803F0BD0BB6B012BE0
:104F600008D0BB6B082B05D0BB6B102B02D0BB6BE2
:104F7000202B07D17B681B685A687B681B6842F44A
:104F800080525A600023FB607B681B685B69FB6092
:104F90007B681B689B69FB60FB687B6800221A6565
:104FA0000BE00023BB607B681B685B69BB607B68B0
:104FB0001B689B69BB60BB68FFE700BF4437BD4609
:104FC00080BC704780B584B000AF78607B6893F890
:104FD0003D30FB737B685B8D9BB2002B2BD07B68D5
:104FE0005B6A1A787B681B681A617B685B6A5A1C6B
:104FF0007B685A627B685B8D9BB2013B9AB27B688F
:105000005A857B685B8D9BB2002B14D1FB7B292BCF
:1050100011D17B681B685A687B681B6822F4806228
:105020005A607B6821221A637B68282283F83D201E
:105030007868FFF7CFF900BF1037BD4680BD80B458
:1050400083B000AF78607B685B8D9BB2002B11D082
:105050007B685B6A1A787B681B681A617B685B6A8D
:105060005A1C7B685A627B685B8D9BB2013B9AB28B
:105070007B685A8500BF0C37BD4680BC704780B541
:1050800084B000AF78607B6893F83D30FB737B6839
:105090005B8D9BB2002B2CD07B681B681A697B68E8
:1050A0005B6AD2B21A707B685B6A5A1C7B685A6270
:1050B0007B685B8D9BB2013B9AB27B685A857B68AB
:1050C0005B8D9BB2002B14D1FB7B2A2B11D17B680B
:1050D0001B685A687B681B6822F480625A607B6890
:1050E00022221A637B68282283F83D207868FFF724
:1050F0007AF900BF1037BD4680BD80B483B000AFE1
:1051000078607B685B8D9BB2002B12D07B681B683C
:105110001A697B685B6AD2B21A707B685B6A5A1C38
:105120007B685A627B685B8D9BB2013B9AB27B685D
:105130005A8500BF0C37BD4680BC704780B584B02F
:1051400000AF786039600023FB737B6893F83D30D3
:10515000DBB203F02803282B27D17B681B685A6831
:105160007B681B6822F480625A603B689B0803F0EE
:105170000103002B01D10123FB733B68DB0903F022
:105180000103002B03D17B68DB68BB8102E07B68F5
:105190009B69BB817B68002283F83C20BA89FB7B3A
:1051A00019467868FFF728F90EE00023BB607B689A
:1051B0001B685B69BB607B681B689B69BB60BB68E5
:1051C0007B68002283F83C2000BF1037BD4680BDBD
:1051D00080B584B000AF78607B6893F83D30FB7396
:1051E0007B681B685A687B681B6822F4E0625A601F
:1051F0000023BB607B681B685B69BB607B681B68C6
:105200001A687B681B6842F001021A60BB687B6801
:105210001B681A687B681B6822F480621A607B68CE
:105220001B685B6803F40063B3F5006F72D1FB7B0E
:10523000222B02D0FB7B2A2B35D17B689B6B1B6812
:105240005B689AB27B685A857B685B8D9BB2002B4A
:1052500005D07B681B6C43F004027B681A647B6892
:105260001B685A687B681B6822F400625A607B687E
:105270009B6B1846FDF7B6FE0346012B49D07B68B1
:105280009B6B694A5A637B689B6B1846FDF72CFD44
:105290000346002B3DD07B689B6B5B6B7A68926BFF
:1052A0001046984735E07B685B6B1B685B689AB279
:1052B0007B685A857B685B8D9BB2002B05D07B6831
:1052C0001B6C43F004027B681A647B681B685A6895
:1052D0007B681B6822F400625A607B685B6B18462F
:1052E000FDF780FE0346012B14D07B685B6B4E4AB2
:1052F0005A637B685B6B1846FDF7F6FC0346002B90
:1053000008D07B685B6B5B6B7A68526B1046984782
:1053100000E000BF7B685B8D9BB2002B3ED07B68BA
:105320001B685B6903F00403042B12D17B681B68C4
:105330001A697B685B6AD2B21A707B685B6A5A1C16
:105340007B685A627B685B8D9BB2013B9AB27B683B
:105350005A857B681B685B6903F04003402B12D1C0
:105360007B681B681A697B685B6AD2B21A707B68BB
:105370005B6A5A1C7B685A627B685B8D9BB2013BFF
:105380009AB27B685A857B685B8D9BB2002B05D0F7
:105390007B681B6C43F004027B681A647B681B6C9F
:1053A000002B03D0786800F0B7F839E0FB7B2A2B9C
:1053B00009D17B6800221A637B68282283F83D208C
:1053C0007868FFF710F87B6893F83D30DBB2282B44
:1053D00011D17B68154ADA627B6800221A637B6808
:1053E000202283F83D207B68002283F83E207868E5
:1053F000FFF70FF814E07B681B6B222B02D0FB7BBE
:10540000222B0DD17B6800221A637B68202283F84F
:105410003D207B68002283F83E207868FEF7E3FF9A
:1054200000BF1037BD4680BD1D5A00080000FFFFB9
:1054300080B584B000AF78607B6893F83D30FB7333
:105440007B68DB6ABB60BB68082B02D0BB68202B83
:1054500029D1FB7B282B26D17B682E4ADA627B6818
:105460001B685A687B681B6822F4E0625A607B689C
:105470001B686FF480625A617B681B681A687B68DE
:105480001B6822F480621A607B6800221A637B68C2
:10549000202283F83D207B68002283F83E20786834
:1054A000FEF7B7FF31E0FB7B212B29D17B68194A3E
:1054B000DA627B6821221A637B68202283F83D2010
:1054C0007B68002283F83E207B681B685A687B68F3
:1054D0001B6822F4E0625A607B681B686FF480628C
:1054E0005A617B681B681A687B681B6822F48062BB
:1054F0001A607868FEF790F87868FEF76BFF04E0B2
:105500007B681B686FF480625A6100BF1037BD462C
:1055100080BD00BF0000FFFF80B584B000AF7860A1
:105520007B6893F83D30FB737B6893F83E30BB7328
:10553000BB7B102B02D0BB7B402B0AD1FB7B222BE9
:1055400007D17B681B681A687B681B6822F40062BD
:105550001A60FB7B03F02803282B07D17B6800220D
:105560001A637B68282283F83D2015E07B681B685E
:105570005B6803F40063B3F5006F0AD0FB7B602B1C
:1055800007D07B68202283F83D207B68002283F8C7
:105590003E207B6800221A637B681B685B6803F40B
:1055A0000063B3F5006F62D17B681B685A687B6843
:1055B0001B6822F400625A607B685B6B93F82130B1
:1055C000DBB2012B20D07B685B6B6A4A5A637B6835
:1055D0005B6B1846FDF788FB0346002B00F08980C3
:1055E0007B681B681A687B681B6822F001021A60DE
:1055F0007B68202283F83D207B685B6B5B6B7A685D
:10560000526B1046984774E07B689B6B594A5A630B
:105610007B689B6B1846FDF767FB0346002B68D041
:105620007B681B685B6903F04003402B0BD17B68F0
:105630001B681A697B685B6AD2B21A707B685B6A06
:105640005A1C7B685A627B681B681A687B681B68F7
:1056500022F001021A607B68202283F83D207B68DB
:105660009B6B5B6B7A68926B1046984741E07B6856
:1056700093F83D30DBB2602B25D17B68202283F884
:105680003D207B6800221A647B681B685B6903F01D
:105690004003402B0BD17B681B681A697B685B6AEF
:1056A000D2B21A707B685B6A5A1C7B685A627B684C
:1056B0001B681A687B681B6822F001021A60786810
:1056C000FEF7CBFE15E07B681B685B6903F04003C7
:1056D000402B0BD17B681B681A697B685B6AD2B26E
:1056E0001A707B685B6A5A1C7B685A627868FEF79E
:1056F000ABFE7B681B6CBB60BB6803F00103002B37
:105700000ED1BB6803F00203002B09D1BB6803F084
:105710000403002B04D1BB6803F00803002B07D05F
:105720007B681B685A687B681B6822F4E0625A60D9
:105730007B6893F83D30FB737B681B6C03F00403BC
:10574000042B13D1FB7B282B10D17B680A4ADA6229
:105750007B6800221A637B68202283F83D207B68E7
:10576000002283F83E207868FEF753FE00BF103712
:10577000BD4680BD1D5A00080000FFFF80B588B0FF
:1057800002AFF8607A603B600B467B81FB68DB6AA6
:105790007B617B69082B06D07B69012B03D07B6979
:1057A00013F5803F08D1FB681B681A68FB681B680B
:1057B00042F480721A600BE0FB681B6B122B07D15E
:1057C000FB681B681A68FB681B6842F480721A60E9
:1057D0003B6800937B6800224FF00111F86800F0ED
:1057E000C5F90346002B0DD0FB681B681B6803F44A
:1057F0008073B3F5807F03D1FB684FF400721A64A5
:10580000032335E0FB681B69B3F5804F08D17B8922
:10581000DBB21A46FB681B6802F0FE021A611BE04D
:105820007B89DB11DBB203F00603DBB263F00F030D
:10583000DAB2FB681B681A613B687A680E49F8683F
:1058400000F00EFA0346002B01D0012310E07B8903
:10585000DAB2FB681B681A613B687A680749F86826
:1058600000F0FEF90346002B01D0012300E00023E5
:1058700018461837BD4680BD08000100020001002F
:1058800080B588B002AFF8607A603B600B467B81E0
:10589000FB68DB6A7B61FB681B681A68FB681B6836
:1058A00042F480621A607B69082B06D07B69012B69
:1058B00003D07B6913F5803F08D1FB681B681A6829
:1058C000FB681B6842F480721A600BE0FB681B6B7C
:1058D000112B07D1FB681B681A68FB681B6842F430
:1058E00080721A603B6800937B6800224FF00111C0
:1058F000F86800F03BF90346002B0DD0FB681B68ED
:105900001B6803F48073B3F5807F03D1FB684FF409
:1059100000721A64032379E0FB681B69B3F5804FBA
:1059200008D17B89DBB243F00103DAB2FB681B6864
:105930001A615FE07B89DB11DBB203F00603DBB2A7
:1059400063F00F03DAB2FB681B681A613B687A6880
:105950003049F86800F084F90346002B01D0012398
:1059600054E07B89DAB2FB681B681A613B687A688D
:105970002949F86800F074F90346002B01D001238F
:1059800044E000233B61FB681B685B693B61FB688B
:105990001B689B693B613B69FB681B681A68FB6875
:1059A0001B6842F480721A603B6800937B68002297
:1059B0004FF00111F86800F0D9F80346002B0DD024
:1059C000FB681B681B6803F48073B3F5807F03D109
:1059D000FB684FF400721A64032317E07B89DB1124
:1059E000DBB203F00603DBB263F00E03DAB2FB684E
:1059F0001B681A613B687A680749F86800F030F95B
:105A00000346002B01D0012300E00023184618377D
:105A1000BD4680BD080001000200010080B586B0CF
:105A200000AF78600023FB607B685B6A7B617B6909
:105A300093F83D30FB744B4B1B68DB084A4AA2FBD2
:105A400003231A0A13469B001344DA00D31AFB609F
:105A5000FB68002B06D17B691B6C43F020027B693D
:105A60001A640AE0FB68013BFB607B691B681B68EA
:105A700003F40073B3F5007FEAD07B695B6B002B06
:105A800003D07B695B6B00229A627B699B6B002B66
:105A900003D07B699B6B00229A627B691B681A6842
:105AA0007B691B6822F480621A607B6900225A8538
:105AB0007B695B6B002B03D07B695B6B00225A63B5
:105AC0007B699B6B002B03D07B699B6B00225A6325
:105AD0007B691B681A687B691B6822F001021A60E7
